{
  "contractName": "Auction",
  "abi": [
    {
      "inputs": [
        {
          "internalType": "address",
          "name": "eoa",
          "type": "address"
        }
      ],
      "stateMutability": "nonpayable",
      "type": "constructor"
    },
    {
      "inputs": [],
      "name": "auctionState",
      "outputs": [
        {
          "internalType": "enum Auction.State",
          "name": "",
          "type": "uint8"
        }
      ],
      "stateMutability": "view",
      "type": "function"
    },
    {
      "inputs": [
        {
          "internalType": "address",
          "name": "",
          "type": "address"
        }
      ],
      "name": "bids",
      "outputs": [
        {
          "internalType": "uint256",
          "name": "",
          "type": "uint256"
        }
      ],
      "stateMutability": "view",
      "type": "function"
    },
    {
      "inputs": [],
      "name": "endBlock",
      "outputs": [
        {
          "internalType": "uint256",
          "name": "",
          "type": "uint256"
        }
      ],
      "stateMutability": "view",
      "type": "function"
    },
    {
      "inputs": [],
      "name": "highestBidder",
      "outputs": [
        {
          "internalType": "address payable",
          "name": "",
          "type": "address"
        }
      ],
      "stateMutability": "view",
      "type": "function"
    },
    {
      "inputs": [],
      "name": "highestBidingBid",
      "outputs": [
        {
          "internalType": "uint256",
          "name": "",
          "type": "uint256"
        }
      ],
      "stateMutability": "view",
      "type": "function"
    },
    {
      "inputs": [],
      "name": "ipfsHash",
      "outputs": [
        {
          "internalType": "string",
          "name": "",
          "type": "string"
        }
      ],
      "stateMutability": "view",
      "type": "function"
    },
    {
      "inputs": [],
      "name": "owner",
      "outputs": [
        {
          "internalType": "address payable",
          "name": "",
          "type": "address"
        }
      ],
      "stateMutability": "view",
      "type": "function"
    },
    {
      "inputs": [],
      "name": "startBlock",
      "outputs": [
        {
          "internalType": "uint256",
          "name": "",
          "type": "uint256"
        }
      ],
      "stateMutability": "view",
      "type": "function"
    },
    {
      "inputs": [],
      "name": "placeBid",
      "outputs": [],
      "stateMutability": "payable",
      "type": "function"
    },
    {
      "inputs": [],
      "name": "cancelAuction",
      "outputs": [],
      "stateMutability": "nonpayable",
      "type": "function"
    },
    {
      "inputs": [],
      "name": "finalizeAuction",
      "outputs": [],
      "stateMutability": "nonpayable",
      "type": "function"
    }
  ],
  "bytecode": "0x60806040523480156200001157600080fd5b506040516200139d3803806200139d833981810160405281019062000037919062000165565b806000806101000a81548173ffffffffffffffffffffffffffffffffffffffff021916908373ffffffffffffffffffffffffffffffffffffffff1602179055506001600460006101000a81548160ff02191690836003811115620000a0576200009f62000197565b5b021790555043600181905550619d80600154620000be9190620001ff565b6002819055506040518060200160405280600081525060039081620000e49190620004aa565b50670de0b6b3a76400006008819055505062000591565b600080fd5b600073ffffffffffffffffffffffffffffffffffffffff82169050919050565b60006200012d8262000100565b9050919050565b6200013f8162000120565b81146200014b57600080fd5b50565b6000815190506200015f8162000134565b92915050565b6000602082840312156200017e576200017d620000fb565b5b60006200018e848285016200014e565b91505092915050565b7f4e487b7100000000000000000000000000000000000000000000000000000000600052602160045260246000fd5b6000819050919050565b7f4e487b7100000000000000000000000000000000000000000000000000000000600052601160045260246000fd5b60006200020c82620001c6565b91506200021983620001c6565b9250828201905080821115620002345762000233620001d0565b5b92915050565b600081519050919050565b7f4e487b7100000000000000000000000000000000000000000000000000000000600052604160045260246000fd5b7f4e487b7100000000000000000000000000000000000000000000000000000000600052602260045260246000fd5b60006002820490506001821680620002bc57607f821691505b602082108103620002d257620002d162000274565b5b50919050565b60008190508160005260206000209050919050565b60006020601f8301049050919050565b600082821b905092915050565b6000600883026200033c7fffffffffffffffffffffffffffffffffffffffffffffffffffffffffffffffff82620002fd565b620003488683620002fd565b95508019841693508086168417925050509392505050565b6000819050919050565b60006200038b620003856200037f84620001c6565b62000360565b620001c6565b9050919050565b6000819050919050565b620003a7836200036a565b620003bf620003b68262000392565b8484546200030a565b825550505050565b600090565b620003d6620003c7565b620003e38184846200039c565b505050565b5b818110156200040b57620003ff600082620003cc565b600181019050620003e9565b5050565b601f8211156200045a576200042481620002d8565b6200042f84620002ed565b810160208510156200043f578190505b620004576200044e85620002ed565b830182620003e8565b50505b505050565b600082821c905092915050565b60006200047f600019846008026200045f565b1980831691505092915050565b60006200049a83836200046c565b9150826002028217905092915050565b620004b5826200023a565b67ffffffffffffffff811115620004d157620004d062000245565b5b620004dd8254620002a3565b620004ea8282856200040f565b600060209050601f8311600181146200052257600084156200050d578287015190505b6200051985826200048c565b86555062000589565b601f1984166200053286620002d8565b60005b828110156200055c5784890151825560018201915060208501945060208101905062000535565b868310156200057c578489015162000578601f8916826200046c565b8355505b6001600288020188555050505b505050505050565b610dfc80620005a16000396000f3fe60806040526004361061009c5760003560e01c80638fa8b790116100645780638fa8b7901461018a57806391f90157146101a1578063c623674f146101cc578063ea5b8fa5146101f7578063ecfc7ecc14610222578063f77282ab1461022c5761009c565b8063083c6323146100a157806348cd4cb1146100cc57806362ea82db146100f75780637fb45099146101345780638da5cb5b1461015f575b600080fd5b3480156100ad57600080fd5b506100b6610243565b6040516100c39190610ad8565b60405180910390f35b3480156100d857600080fd5b506100e1610249565b6040516100ee9190610ad8565b60405180910390f35b34801561010357600080fd5b5061011e60048036038101906101199190610b56565b61024f565b60405161012b9190610ad8565b60405180910390f35b34801561014057600080fd5b50610149610267565b6040516101569190610bfa565b60405180910390f35b34801561016b57600080fd5b5061017461027a565b6040516101819190610c36565b60405180910390f35b34801561019657600080fd5b5061019f61029e565b005b3480156101ad57600080fd5b506101b6610323565b6040516101c39190610c36565b60405180910390f35b3480156101d857600080fd5b506101e1610349565b6040516101ee9190610ce1565b60405180910390f35b34801561020357600080fd5b5061020c6103d7565b6040516102199190610ad8565b60405180910390f35b61022a6103dd565b005b34801561023857600080fd5b506102416106f0565b005b60025481565b60015481565b60076020528060005260406000206000915090505481565b600460009054906101000a900460ff1681565b60008054906101000a900473ffffffffffffffffffffffffffffffffffffffff1681565b60008054906101000a900473ffffffffffffffffffffffffffffffffffffffff1673ffffffffffffffffffffffffffffffffffffffff163373ffffffffffffffffffffffffffffffffffffffff16146102f657600080fd5b6003600460006101000a81548160ff0219169083600381111561031c5761031b610b83565b5b0217905550565b600660009054906101000a900473ffffffffffffffffffffffffffffffffffffffff1681565b6003805461035690610d32565b80601f016020809104026020016040519081016040528092919081815260200182805461038290610d32565b80156103cf5780601f106103a4576101008083540402835291602001916103cf565b820191906000526020600020905b8154815290600101906020018083116103b257829003601f168201915b505050505081565b60055481565b3373ffffffffffffffffffffffffffffffffffffffff1660008054906101000a900473ffffffffffffffffffffffffffffffffffffffff1673ffffffffffffffffffffffffffffffffffffffff160361043557600080fd5b60015443101561044457600080fd5b60025443111561045357600080fd5b6001600381111561046757610466610b83565b5b600460009054906101000a900460ff16600381111561048957610488610b83565b5b1461049357600080fd5b60643410156104a157600080fd5b600034600760003373ffffffffffffffffffffffffffffffffffffffff1673ffffffffffffffffffffffffffffffffffffffff168152602001908152602001600020546104ee9190610d92565b905060055481116104fe57600080fd5b80600760003373ffffffffffffffffffffffffffffffffffffffff1673ffffffffffffffffffffffffffffffffffffffff1681526020019081526020016000208190555060076000600660009054906101000a900473ffffffffffffffffffffffffffffffffffffffff1673ffffffffffffffffffffffffffffffffffffffff1673ffffffffffffffffffffffffffffffffffffffff16815260200190815260200160002054811161062d57610622600854826105bb9190610d92565b60076000600660009054906101000a900473ffffffffffffffffffffffffffffffffffffffff1673ffffffffffffffffffffffffffffffffffffffff1673ffffffffffffffffffffffffffffffffffffffff16815260200190815260200160002054610aa4565b6005819055506106ed565b6106a58160085460076000600660009054906101000a900473ffffffffffffffffffffffffffffffffffffffff1673ffffffffffffffffffffffffffffffffffffffff1673ffffffffffffffffffffffffffffffffffffffff168152602001908152602001600020546106a09190610d92565b610aa4565b60058190555033600660006101000a81548173ffffffffffffffffffffffffffffffffffffffff021916908373ffffffffffffffffffffffffffffffffffffffff1602179055505b50565b60038081111561070357610702610b83565b5b600460009054906101000a900460ff16600381111561072557610724610b83565b5b1480610732575060025443115b61073b57600080fd5b60008054906101000a900473ffffffffffffffffffffffffffffffffffffffff1673ffffffffffffffffffffffffffffffffffffffff163373ffffffffffffffffffffffffffffffffffffffff1614806107d457506000600760003373ffffffffffffffffffffffffffffffffffffffff1673ffffffffffffffffffffffffffffffffffffffff16815260200190815260200160002054115b6107dd57600080fd5b6000806003808111156107f3576107f2610b83565b5b600460009054906101000a900460ff16600381111561081557610814610b83565b5b0361086457339150600760003373ffffffffffffffffffffffffffffffffffffffff1673ffffffffffffffffffffffffffffffffffffffff168152602001908152602001600020549050610a14565b60008054906101000a900473ffffffffffffffffffffffffffffffffffffffff1673ffffffffffffffffffffffffffffffffffffffff163373ffffffffffffffffffffffffffffffffffffffff16036108e45760008054906101000a900473ffffffffffffffffffffffffffffffffffffffff1691506005549050610a13565b600660009054906101000a900473ffffffffffffffffffffffffffffffffffffffff1673ffffffffffffffffffffffffffffffffffffffff163373ffffffffffffffffffffffffffffffffffffffff16036109cc57600660009054906101000a900473ffffffffffffffffffffffffffffffffffffffff16915060055460076000600660009054906101000a900473ffffffffffffffffffffffffffffffffffffffff1673ffffffffffffffffffffffffffffffffffffffff1673ffffffffffffffffffffffffffffffffffffffff1681526020019081526020016000208190559050610a12565b339150600760003373ffffffffffffffffffffffffffffffffffffffff1673ffffffffffffffffffffffffffffffffffffffff1681526020019081526020016000205490505b5b5b6000600760008473ffffffffffffffffffffffffffffffffffffffff1673ffffffffffffffffffffffffffffffffffffffff168152602001908152602001600020819055508173ffffffffffffffffffffffffffffffffffffffff166108fc829081150290604051600060405180830381858888f19350505050158015610a9f573d6000803e3d6000fd5b505050565b6000818311610ab557829050610ab9565b8190505b92915050565b6000819050919050565b610ad281610abf565b82525050565b6000602082019050610aed6000830184610ac9565b92915050565b600080fd5b600073ffffffffffffffffffffffffffffffffffffffff82169050919050565b6000610b2382610af8565b9050919050565b610b3381610b18565b8114610b3e57600080fd5b50565b600081359050610b5081610b2a565b92915050565b600060208284031215610b6c57610b6b610af3565b5b6000610b7a84828501610b41565b91505092915050565b7f4e487b7100000000000000000000000000000000000000000000000000000000600052602160045260246000fd5b60048110610bc357610bc2610b83565b5b50565b6000819050610bd482610bb2565b919050565b6000610be482610bc6565b9050919050565b610bf481610bd9565b82525050565b6000602082019050610c0f6000830184610beb565b92915050565b6000610c2082610af8565b9050919050565b610c3081610c15565b82525050565b6000602082019050610c4b6000830184610c27565b92915050565b600081519050919050565b600082825260208201905092915050565b60005b83811015610c8b578082015181840152602081019050610c70565b60008484015250505050565b6000601f19601f8301169050919050565b6000610cb382610c51565b610cbd8185610c5c565b9350610ccd818560208601610c6d565b610cd681610c97565b840191505092915050565b60006020820190508181036000830152610cfb8184610ca8565b905092915050565b7f4e487b7100000000000000000000000000000000000000000000000000000000600052602260045260246000fd5b60006002820490506001821680610d4a57607f821691505b602082108103610d5d57610d5c610d03565b5b50919050565b7f4e487b7100000000000000000000000000000000000000000000000000000000600052601160045260246000fd5b6000610d9d82610abf565b9150610da883610abf565b9250828201905080821115610dc057610dbf610d63565b5b9291505056fea2646970667358221220c45328656185287989294a35d636b04c9e41aec29356919b1ff69cbabfda020364736f6c63430008100033",
  "immutableReferences": {},
  "source": "// SPDX-License-Identifier: GPL-3.0\n\npragma solidity >=0.7.0 <0.9.0;\n\ncontract Auction{\n    address payable public owner;\n    // two variable to calculate when the auction starts and ends\n    uint public startBlock;\n    uint public endBlock;\n    // save all other info like image of the item on IFS - iterplanetary file system\n    // ipfs uniquely identifies the information\n    string public ipfsHash;\n    // declaring enum type to save the state of the auction\n    enum State {started,Running,Ended,Cancelled}\n    State public auctionState;\n  \n   // declare variable for highest binding bid\n   uint public highestBidingBid;\n   \n   // making it payable so if auction got cancelled or anything he can get his amount back\n   address payable public highestBidder;\n\n\n   mapping(address=>uint) public bids;\n\n   uint bidIncrement;\n   \n   constructor(address eoa){\n    owner = payable(eoa);\n    auctionState= State.Running;\n\n    startBlock = block.number;\n    // this means that the auction will be running for a week\n    // we can limit the transactions by changing this number\n    endBlock = startBlock+40320;\n    \n    ipfsHash=\"\";\n    // bid increment will be 1 ether\n    bidIncrement = 1000000000000000000;\n\n   }\n\n   // function modifies - use to modify the function behaviour\n   // use modifies to automatically check the condition prior to function\n     modifier notOwner(){\n        require(owner!= msg.sender);\n        _; // if the owner call this function the function will executed otherwise it will give exception\n\n    }\n\n    // another restriction - aution will running in between starts and end\n    modifier afterStart(){\n        require(block.number>= startBlock);\n        _;\n    }\n     modifier beforeEnd(){\n        require(block.number<= endBlock);\n        _;\n    }\n\n\n   function min(uint a, uint b) pure internal returns(uint){\n    if(a<=b){\n        return a;\n    }else{\n        return b;\n    }\n   }\n   \n   function placeBid() public payable notOwner afterStart beforeEnd{\n      require(auctionState==State.Running);\n      require(msg.value>=100);\n\n// this will be the value sent by current plus\n// the value sent with this transanction value\n      uint currentBid= bids[msg.sender] + msg.value;\n      \n      require(currentBid> highestBidingBid);\n      bids[msg.sender]= currentBid;\n       \n      if(currentBid<= bids[highestBidder]){\n        highestBidingBid = min(currentBid+bidIncrement,bids[highestBidder]);\n\n      }\n      else{\n          highestBidingBid = min(currentBid,bids[highestBidder]+bidIncrement);\n          highestBidder= payable(msg.sender);\n      }\n   }\n  \n    modifier onlyOwner(){\n        require(msg.sender==owner);\n        _;\n    }\n   // cancelling the auction\n    \n    function cancelAuction() public onlyOwner{\n        auctionState = State.Cancelled;\n\n    }\n    // withdrawal patter - helps to avoid re-entrance attack that could cause unexpected\n    // unwxpected behaviour - like financial loss to users\n\n\n    // now finalizing the auction\n    function finalizeAuction() public{\n        require(auctionState==State.Cancelled|| block.number>endBlock);\n        // check who cancelled the auction is owner or not\n        // also the person who want to finalize this should only be biider - by checking their bidding value\n        require(msg.sender==owner|| bids[msg.sender]>0);\n        address payable recipient;\n        uint value;\n\n        if(auctionState==State.Cancelled){ // auction was cancelled\n        // then each bidder will get their ether back - by calling this function one by one \n        //- at the frontend\n            recipient= payable(msg.sender);\n            value = bids[msg.sender];\n\n        }else{ // auction ended (not cancelled)\n             if(msg.sender==owner){ // if ended by owner\n            \n                recipient= owner;\n                value= highestBidingBid;\n             }else{ // if ender by highest bidder\n                 if(msg.sender==highestBidder){\n                    recipient= highestBidder;\n                    value= bids[highestBidder] = highestBidingBid;\n                 }else{ // this is neither the owner nor the highest bidder\n                        recipient= payable(msg.sender);\n                        value = bids[msg.sender];\n                  }\n             }\n        }\n        // resetting the bids of receipient to zero\n        // so that they can't repeatedly finalize the auction and gets the value each time\n         bids[recipient]= 0;\n        recipient.transfer(value);\n        \n       \n    }\n\n\n\n    // how to scale application from 1 auction to hundreds of auction\n\n}",
  "sourcePath": "/home/tuba/Work-Folder/BlockChain-Developement/Auction-Dapp-Project/src/contracts/Auction.sol",
  "compiler": {
    "name": "solc",
    "version": "0.8.16+commit.07a7930e.Emscripten.clang"
  },
  "schemaVersion": "3.4.9",
  "updatedAt": "2022-09-03T22:26:06.029Z",
  "devdoc": {
    "kind": "dev",
    "methods": {},
    "version": 1
  },
  "userdoc": {
    "kind": "user",
    "methods": {},
    "version": 1
  }
}