{
  "contractName": "AuctionCreator",
  "abi": [
    {
      "inputs": [
        {
          "internalType": "uint256",
          "name": "",
          "type": "uint256"
        }
      ],
      "name": "auctions",
      "outputs": [
        {
          "internalType": "contract Auction",
          "name": "",
          "type": "address"
        }
      ],
      "stateMutability": "view",
      "type": "function"
    },
    {
      "inputs": [],
      "name": "creatAuction",
      "outputs": [],
      "stateMutability": "nonpayable",
      "type": "function"
    }
  ],
  "bytecode": "0x608060405234801561001057600080fd5b506116a1806100206000396000f3fe60806040523480156200001157600080fd5b50600436106200003a5760003560e01c8063571a26a0146200003f578063808148631462000075575b600080fd5b6200005d6004803603810190620000579190620001b2565b62000081565b6040516200006c91906200026f565b60405180910390f35b6200007f620000c1565b005b600081815481106200009257600080fd5b906000526020600020016000915054906101000a900473ffffffffffffffffffffffffffffffffffffffff1681565b600033604051620000d29062000164565b620000de9190620002b1565b604051809103906000f080158015620000fb573d6000803e3d6000fd5b5090506000819080600181540180825580915050600190039060005260206000200160009091909190916101000a81548173ffffffffffffffffffffffffffffffffffffffff021916908373ffffffffffffffffffffffffffffffffffffffff16021790555050565b61139d80620002cf83390190565b600080fd5b6000819050919050565b6200018c8162000177565b81146200019857600080fd5b50565b600081359050620001ac8162000181565b92915050565b600060208284031215620001cb57620001ca62000172565b5b6000620001db848285016200019b565b91505092915050565b600073ffffffffffffffffffffffffffffffffffffffff82169050919050565b6000819050919050565b60006200022f620002296200022384620001e4565b62000204565b620001e4565b9050919050565b600062000243826200020e565b9050919050565b6000620002578262000236565b9050919050565b62000269816200024a565b82525050565b60006020820190506200028660008301846200025e565b92915050565b60006200029982620001e4565b9050919050565b620002ab816200028c565b82525050565b6000602082019050620002c86000830184620002a0565b9291505056fe60806040523480156200001157600080fd5b506040516200139d3803806200139d833981810160405281019062000037919062000165565b806000806101000a81548173ffffffffffffffffffffffffffffffffffffffff021916908373ffffffffffffffffffffffffffffffffffffffff1602179055506001600460006101000a81548160ff02191690836003811115620000a0576200009f62000197565b5b021790555043600181905550619d80600154620000be9190620001ff565b6002819055506040518060200160405280600081525060039081620000e49190620004aa565b50670de0b6b3a76400006008819055505062000591565b600080fd5b600073ffffffffffffffffffffffffffffffffffffffff82169050919050565b60006200012d8262000100565b9050919050565b6200013f8162000120565b81146200014b57600080fd5b50565b6000815190506200015f8162000134565b92915050565b6000602082840312156200017e576200017d620000fb565b5b60006200018e848285016200014e565b91505092915050565b7f4e487b7100000000000000000000000000000000000000000000000000000000600052602160045260246000fd5b6000819050919050565b7f4e487b7100000000000000000000000000000000000000000000000000000000600052601160045260246000fd5b60006200020c82620001c6565b91506200021983620001c6565b9250828201905080821115620002345762000233620001d0565b5b92915050565b600081519050919050565b7f4e487b7100000000000000000000000000000000000000000000000000000000600052604160045260246000fd5b7f4e487b7100000000000000000000000000000000000000000000000000000000600052602260045260246000fd5b60006002820490506001821680620002bc57607f821691505b602082108103620002d257620002d162000274565b5b50919050565b60008190508160005260206000209050919050565b60006020601f8301049050919050565b600082821b905092915050565b6000600883026200033c7fffffffffffffffffffffffffffffffffffffffffffffffffffffffffffffffff82620002fd565b620003488683620002fd565b95508019841693508086168417925050509392505050565b6000819050919050565b60006200038b620003856200037f84620001c6565b62000360565b620001c6565b9050919050565b6000819050919050565b620003a7836200036a565b620003bf620003b68262000392565b8484546200030a565b825550505050565b600090565b620003d6620003c7565b620003e38184846200039c565b505050565b5b818110156200040b57620003ff600082620003cc565b600181019050620003e9565b5050565b601f8211156200045a576200042481620002d8565b6200042f84620002ed565b810160208510156200043f578190505b620004576200044e85620002ed565b830182620003e8565b50505b505050565b600082821c905092915050565b60006200047f600019846008026200045f565b1980831691505092915050565b60006200049a83836200046c565b9150826002028217905092915050565b620004b5826200023a565b67ffffffffffffffff811115620004d157620004d062000245565b5b620004dd8254620002a3565b620004ea8282856200040f565b600060209050601f8311600181146200052257600084156200050d578287015190505b6200051985826200048c565b86555062000589565b601f1984166200053286620002d8565b60005b828110156200055c5784890151825560018201915060208501945060208101905062000535565b868310156200057c578489015162000578601f8916826200046c565b8355505b6001600288020188555050505b505050505050565b610dfc80620005a16000396000f3fe60806040526004361061009c5760003560e01c80638fa8b790116100645780638fa8b7901461018a57806391f90157146101a1578063c623674f146101cc578063ea5b8fa5146101f7578063ecfc7ecc14610222578063f77282ab1461022c5761009c565b8063083c6323146100a157806348cd4cb1146100cc57806362ea82db146100f75780637fb45099146101345780638da5cb5b1461015f575b600080fd5b3480156100ad57600080fd5b506100b6610243565b6040516100c39190610ad8565b60405180910390f35b3480156100d857600080fd5b506100e1610249565b6040516100ee9190610ad8565b60405180910390f35b34801561010357600080fd5b5061011e60048036038101906101199190610b56565b61024f565b60405161012b9190610ad8565b60405180910390f35b34801561014057600080fd5b50610149610267565b6040516101569190610bfa565b60405180910390f35b34801561016b57600080fd5b5061017461027a565b6040516101819190610c36565b60405180910390f35b34801561019657600080fd5b5061019f61029e565b005b3480156101ad57600080fd5b506101b6610323565b6040516101c39190610c36565b60405180910390f35b3480156101d857600080fd5b506101e1610349565b6040516101ee9190610ce1565b60405180910390f35b34801561020357600080fd5b5061020c6103d7565b6040516102199190610ad8565b60405180910390f35b61022a6103dd565b005b34801561023857600080fd5b506102416106f0565b005b60025481565b60015481565b60076020528060005260406000206000915090505481565b600460009054906101000a900460ff1681565b60008054906101000a900473ffffffffffffffffffffffffffffffffffffffff1681565b60008054906101000a900473ffffffffffffffffffffffffffffffffffffffff1673ffffffffffffffffffffffffffffffffffffffff163373ffffffffffffffffffffffffffffffffffffffff16146102f657600080fd5b6003600460006101000a81548160ff0219169083600381111561031c5761031b610b83565b5b0217905550565b600660009054906101000a900473ffffffffffffffffffffffffffffffffffffffff1681565b6003805461035690610d32565b80601f016020809104026020016040519081016040528092919081815260200182805461038290610d32565b80156103cf5780601f106103a4576101008083540402835291602001916103cf565b820191906000526020600020905b8154815290600101906020018083116103b257829003601f168201915b505050505081565b60055481565b3373ffffffffffffffffffffffffffffffffffffffff1660008054906101000a900473ffffffffffffffffffffffffffffffffffffffff1673ffffffffffffffffffffffffffffffffffffffff160361043557600080fd5b60015443101561044457600080fd5b60025443111561045357600080fd5b6001600381111561046757610466610b83565b5b600460009054906101000a900460ff16600381111561048957610488610b83565b5b1461049357600080fd5b60643410156104a157600080fd5b600034600760003373ffffffffffffffffffffffffffffffffffffffff1673ffffffffffffffffffffffffffffffffffffffff168152602001908152602001600020546104ee9190610d92565b905060055481116104fe57600080fd5b80600760003373ffffffffffffffffffffffffffffffffffffffff1673ffffffffffffffffffffffffffffffffffffffff1681526020019081526020016000208190555060076000600660009054906101000a900473ffffffffffffffffffffffffffffffffffffffff1673ffffffffffffffffffffffffffffffffffffffff1673ffffffffffffffffffffffffffffffffffffffff16815260200190815260200160002054811161062d57610622600854826105bb9190610d92565b60076000600660009054906101000a900473ffffffffffffffffffffffffffffffffffffffff1673ffffffffffffffffffffffffffffffffffffffff1673ffffffffffffffffffffffffffffffffffffffff16815260200190815260200160002054610aa4565b6005819055506106ed565b6106a58160085460076000600660009054906101000a900473ffffffffffffffffffffffffffffffffffffffff1673ffffffffffffffffffffffffffffffffffffffff1673ffffffffffffffffffffffffffffffffffffffff168152602001908152602001600020546106a09190610d92565b610aa4565b60058190555033600660006101000a81548173ffffffffffffffffffffffffffffffffffffffff021916908373ffffffffffffffffffffffffffffffffffffffff1602179055505b50565b60038081111561070357610702610b83565b5b600460009054906101000a900460ff16600381111561072557610724610b83565b5b1480610732575060025443115b61073b57600080fd5b60008054906101000a900473ffffffffffffffffffffffffffffffffffffffff1673ffffffffffffffffffffffffffffffffffffffff163373ffffffffffffffffffffffffffffffffffffffff1614806107d457506000600760003373ffffffffffffffffffffffffffffffffffffffff1673ffffffffffffffffffffffffffffffffffffffff16815260200190815260200160002054115b6107dd57600080fd5b6000806003808111156107f3576107f2610b83565b5b600460009054906101000a900460ff16600381111561081557610814610b83565b5b0361086457339150600760003373ffffffffffffffffffffffffffffffffffffffff1673ffffffffffffffffffffffffffffffffffffffff168152602001908152602001600020549050610a14565b60008054906101000a900473ffffffffffffffffffffffffffffffffffffffff1673ffffffffffffffffffffffffffffffffffffffff163373ffffffffffffffffffffffffffffffffffffffff16036108e45760008054906101000a900473ffffffffffffffffffffffffffffffffffffffff1691506005549050610a13565b600660009054906101000a900473ffffffffffffffffffffffffffffffffffffffff1673ffffffffffffffffffffffffffffffffffffffff163373ffffffffffffffffffffffffffffffffffffffff16036109cc57600660009054906101000a900473ffffffffffffffffffffffffffffffffffffffff16915060055460076000600660009054906101000a900473ffffffffffffffffffffffffffffffffffffffff1673ffffffffffffffffffffffffffffffffffffffff1673ffffffffffffffffffffffffffffffffffffffff1681526020019081526020016000208190559050610a12565b339150600760003373ffffffffffffffffffffffffffffffffffffffff1673ffffffffffffffffffffffffffffffffffffffff1681526020019081526020016000205490505b5b5b6000600760008473ffffffffffffffffffffffffffffffffffffffff1673ffffffffffffffffffffffffffffffffffffffff168152602001908152602001600020819055508173ffffffffffffffffffffffffffffffffffffffff166108fc829081150290604051600060405180830381858888f19350505050158015610a9f573d6000803e3d6000fd5b505050565b6000818311610ab557829050610ab9565b8190505b92915050565b6000819050919050565b610ad281610abf565b82525050565b6000602082019050610aed6000830184610ac9565b92915050565b600080fd5b600073ffffffffffffffffffffffffffffffffffffffff82169050919050565b6000610b2382610af8565b9050919050565b610b3381610b18565b8114610b3e57600080fd5b50565b600081359050610b5081610b2a565b92915050565b600060208284031215610b6c57610b6b610af3565b5b6000610b7a84828501610b41565b91505092915050565b7f4e487b7100000000000000000000000000000000000000000000000000000000600052602160045260246000fd5b60048110610bc357610bc2610b83565b5b50565b6000819050610bd482610bb2565b919050565b6000610be482610bc6565b9050919050565b610bf481610bd9565b82525050565b6000602082019050610c0f6000830184610beb565b92915050565b6000610c2082610af8565b9050919050565b610c3081610c15565b82525050565b6000602082019050610c4b6000830184610c27565b92915050565b600081519050919050565b600082825260208201905092915050565b60005b83811015610c8b578082015181840152602081019050610c70565b60008484015250505050565b6000601f19601f8301169050919050565b6000610cb382610c51565b610cbd8185610c5c565b9350610ccd818560208601610c6d565b610cd681610c97565b840191505092915050565b60006020820190508181036000830152610cfb8184610ca8565b905092915050565b7f4e487b7100000000000000000000000000000000000000000000000000000000600052602260045260246000fd5b60006002820490506001821680610d4a57607f821691505b602082108103610d5d57610d5c610d03565b5b50919050565b7f4e487b7100000000000000000000000000000000000000000000000000000000600052601160045260246000fd5b6000610d9d82610abf565b9150610da883610abf565b9250828201905080821115610dc057610dbf610d63565b5b9291505056fea2646970667358221220c45328656185287989294a35d636b04c9e41aec29356919b1ff69cbabfda020364736f6c63430008100033a2646970667358221220052e71e8aa43592227ebe0314cccc70291c6c97520c316d02675829f7d6bbcc464736f6c63430008100033",
  "immutableReferences": {},
  "source": "// SPDX-License-Identifier: GPL-3.0\n\npragma solidity >=0.7.0 <0.9.0;\nimport './Auction.sol';\n\ncontract AuctionCreator{\n    Auction[] public auctions;\n    \n    function creatAuction() public{\n        Auction newAuction = new Auction(msg.sender);\n        auctions.push(newAuction);\n    }\n}",
  "sourcePath": "/home/tuba/Work-Folder/BlockChain-Developement/Auction-Dapp-Project/src/contracts/AuctionCreator.sol",
  "compiler": {
    "name": "solc",
    "version": "0.8.16+commit.07a7930e.Emscripten.clang"
  },
  "schemaVersion": "3.4.9",
  "updatedAt": "2022-09-03T22:26:06.035Z",
  "devdoc": {
    "kind": "dev",
    "methods": {},
    "version": 1
  },
  "userdoc": {
    "kind": "user",
    "methods": {},
    "version": 1
  }
}