{
  "contractName": "Auction",
  "abi": [
    {
      "inputs": [],
      "stateMutability": "nonpayable",
      "type": "constructor"
    },
    {
      "inputs": [],
      "name": "auctionState",
      "outputs": [
        {
          "internalType": "enum Auction.State",
          "name": "",
          "type": "uint8"
        }
      ],
      "stateMutability": "view",
      "type": "function"
    },
    {
      "inputs": [
        {
          "internalType": "address",
          "name": "",
          "type": "address"
        }
      ],
      "name": "bids",
      "outputs": [
        {
          "internalType": "uint256",
          "name": "",
          "type": "uint256"
        }
      ],
      "stateMutability": "view",
      "type": "function"
    },
    {
      "inputs": [],
      "name": "endBlock",
      "outputs": [
        {
          "internalType": "uint256",
          "name": "",
          "type": "uint256"
        }
      ],
      "stateMutability": "view",
      "type": "function"
    },
    {
      "inputs": [],
      "name": "highestBidder",
      "outputs": [
        {
          "internalType": "address payable",
          "name": "",
          "type": "address"
        }
      ],
      "stateMutability": "view",
      "type": "function"
    },
    {
      "inputs": [],
      "name": "highestBidingBid",
      "outputs": [
        {
          "internalType": "uint256",
          "name": "",
          "type": "uint256"
        }
      ],
      "stateMutability": "view",
      "type": "function"
    },
    {
      "inputs": [],
      "name": "ipfsHash",
      "outputs": [
        {
          "internalType": "string",
          "name": "",
          "type": "string"
        }
      ],
      "stateMutability": "view",
      "type": "function"
    },
    {
      "inputs": [],
      "name": "owner",
      "outputs": [
        {
          "internalType": "address payable",
          "name": "",
          "type": "address"
        }
      ],
      "stateMutability": "view",
      "type": "function"
    },
    {
      "inputs": [],
      "name": "startBlock",
      "outputs": [
        {
          "internalType": "uint256",
          "name": "",
          "type": "uint256"
        }
      ],
      "stateMutability": "view",
      "type": "function"
    },
    {
      "inputs": [],
      "name": "placeBid",
      "outputs": [],
      "stateMutability": "payable",
      "type": "function"
    }
  ],
  "bytecode": "0x60806040523480156200001157600080fd5b50336000806101000a81548173ffffffffffffffffffffffffffffffffffffffff021916908373ffffffffffffffffffffffffffffffffffffffff1602179055506001600460006101000a81548160ff021916908360038111156200007b576200007a620000ce565b5b021790555043600181905550619d8060015462000099919062000136565b6002819055506040518060200160405280600081525060039081620000bf9190620003e1565b506064600881905550620004c8565b7f4e487b7100000000000000000000000000000000000000000000000000000000600052602160045260246000fd5b6000819050919050565b7f4e487b7100000000000000000000000000000000000000000000000000000000600052601160045260246000fd5b60006200014382620000fd565b91506200015083620000fd565b92508282019050808211156200016b576200016a62000107565b5b92915050565b600081519050919050565b7f4e487b7100000000000000000000000000000000000000000000000000000000600052604160045260246000fd5b7f4e487b7100000000000000000000000000000000000000000000000000000000600052602260045260246000fd5b60006002820490506001821680620001f357607f821691505b602082108103620002095762000208620001ab565b5b50919050565b60008190508160005260206000209050919050565b60006020601f8301049050919050565b600082821b905092915050565b600060088302620002737fffffffffffffffffffffffffffffffffffffffffffffffffffffffffffffffff8262000234565b6200027f868362000234565b95508019841693508086168417925050509392505050565b6000819050919050565b6000620002c2620002bc620002b684620000fd565b62000297565b620000fd565b9050919050565b6000819050919050565b620002de83620002a1565b620002f6620002ed82620002c9565b84845462000241565b825550505050565b600090565b6200030d620002fe565b6200031a818484620002d3565b505050565b5b8181101562000342576200033660008262000303565b60018101905062000320565b5050565b601f82111562000391576200035b816200020f565b620003668462000224565b8101602085101562000376578190505b6200038e620003858562000224565b8301826200031f565b50505b505050565b600082821c905092915050565b6000620003b66000198460080262000396565b1980831691505092915050565b6000620003d18383620003a3565b9150826002028217905092915050565b620003ec8262000171565b67ffffffffffffffff8111156200040857620004076200017c565b5b620004148254620001da565b6200042182828562000346565b600060209050601f83116001811462000459576000841562000444578287015190505b620004508582620003c3565b865550620004c0565b601f19841662000469866200020f565b60005b8281101562000493578489015182556001820191506020850194506020810190506200046c565b86831015620004b35784890151620004af601f891682620003a3565b8355505b6001600288020188555050505b505050505050565b61093e80620004d86000396000f3fe6080604052600436106100865760003560e01c80638da5cb5b116100595780638da5cb5b1461014957806391f9015714610174578063c623674f1461019f578063ea5b8fa5146101ca578063ecfc7ecc146101f557610086565b8063083c63231461008b57806348cd4cb1146100b657806362ea82db146100e15780637fb450991461011e575b600080fd5b34801561009757600080fd5b506100a06101ff565b6040516100ad919061061a565b60405180910390f35b3480156100c257600080fd5b506100cb610205565b6040516100d8919061061a565b60405180910390f35b3480156100ed57600080fd5b5061010860048036038101906101039190610698565b61020b565b604051610115919061061a565b60405180910390f35b34801561012a57600080fd5b50610133610223565b604051610140919061073c565b60405180910390f35b34801561015557600080fd5b5061015e610236565b60405161016b9190610778565b60405180910390f35b34801561018057600080fd5b5061018961025a565b6040516101969190610778565b60405180910390f35b3480156101ab57600080fd5b506101b4610280565b6040516101c19190610823565b60405180910390f35b3480156101d657600080fd5b506101df61030e565b6040516101ec919061061a565b60405180910390f35b6101fd610314565b005b60025481565b60015481565b60076020528060005260406000206000915090505481565b600460009054906101000a900460ff1681565b60008054906101000a900473ffffffffffffffffffffffffffffffffffffffff1681565b600660009054906101000a900473ffffffffffffffffffffffffffffffffffffffff1681565b6003805461028d90610874565b80601f01602080910402602001604051908101604052809291908181526020018280546102b990610874565b80156103065780601f106102db57610100808354040283529160200191610306565b820191906000526020600020905b8154815290600101906020018083116102e957829003601f168201915b505050505081565b60055481565b3373ffffffffffffffffffffffffffffffffffffffff1660008054906101000a900473ffffffffffffffffffffffffffffffffffffffff1673ffffffffffffffffffffffffffffffffffffffff160361036c57600080fd5b60015443101561037b57600080fd5b60025443111561038a57600080fd5b6001600381111561039e5761039d6106c5565b5b600460009054906101000a900460ff1660038111156103c0576103bf6106c5565b5b146103ca57600080fd5b60643410156103d857600080fd5b600034600760003373ffffffffffffffffffffffffffffffffffffffff1673ffffffffffffffffffffffffffffffffffffffff1681526020019081526020016000205461042591906108d4565b9050600554811161043557600080fd5b80600760003373ffffffffffffffffffffffffffffffffffffffff1673ffffffffffffffffffffffffffffffffffffffff1681526020019081526020016000208190555060076000600660009054906101000a900473ffffffffffffffffffffffffffffffffffffffff1673ffffffffffffffffffffffffffffffffffffffff1673ffffffffffffffffffffffffffffffffffffffff16815260200190815260200160002054811161056457610559600854826104f291906108d4565b60076000600660009054906101000a900473ffffffffffffffffffffffffffffffffffffffff1673ffffffffffffffffffffffffffffffffffffffff1673ffffffffffffffffffffffffffffffffffffffff168152602001908152602001600020546105e6565b6005819055506105e3565b6105dc8160085460076000600660009054906101000a900473ffffffffffffffffffffffffffffffffffffffff1673ffffffffffffffffffffffffffffffffffffffff1673ffffffffffffffffffffffffffffffffffffffff168152602001908152602001600020546105d791906108d4565b6105e6565b6005819055505b50565b60008183116105f7578290506105fb565b8190505b92915050565b6000819050919050565b61061481610601565b82525050565b600060208201905061062f600083018461060b565b92915050565b600080fd5b600073ffffffffffffffffffffffffffffffffffffffff82169050919050565b60006106658261063a565b9050919050565b6106758161065a565b811461068057600080fd5b50565b6000813590506106928161066c565b92915050565b6000602082840312156106ae576106ad610635565b5b60006106bc84828501610683565b91505092915050565b7f4e487b7100000000000000000000000000000000000000000000000000000000600052602160045260246000fd5b60048110610705576107046106c5565b5b50565b6000819050610716826106f4565b919050565b600061072682610708565b9050919050565b6107368161071b565b82525050565b6000602082019050610751600083018461072d565b92915050565b60006107628261063a565b9050919050565b61077281610757565b82525050565b600060208201905061078d6000830184610769565b92915050565b600081519050919050565b600082825260208201905092915050565b60005b838110156107cd5780820151818401526020810190506107b2565b60008484015250505050565b6000601f19601f8301169050919050565b60006107f582610793565b6107ff818561079e565b935061080f8185602086016107af565b610818816107d9565b840191505092915050565b6000602082019050818103600083015261083d81846107ea565b905092915050565b7f4e487b7100000000000000000000000000000000000000000000000000000000600052602260045260246000fd5b6000600282049050600182168061088c57607f821691505b60208210810361089f5761089e610845565b5b50919050565b7f4e487b7100000000000000000000000000000000000000000000000000000000600052601160045260246000fd5b60006108df82610601565b91506108ea83610601565b9250828201905080821115610902576109016108a5565b5b9291505056fea264697066735822122010649e345fdd73dbafd22cd600c92c6431ce4456b40b677e8378709a614af40564736f6c63430008100033",
  "immutableReferences": {},
  "source": "// SPDX-License-Identifier: GPL-3.0\n\npragma solidity >=0.7.0 <0.9.0;\n\ncontract Auction{\n    address payable public owner;\n    // two variable to calculate when the auction starts and ends\n    uint public startBlock;\n    uint public endBlock;\n    // save all other info like image of the item on IFS - iterplanetary file system\n    // ipfs uniquely identifies the information\n    string public ipfsHash;\n    // declaring enum type to save the state of the auction\n    enum State {started,Running,Ended,Cancelled}\n    State public auctionState;\n  \n   // declare variable for highest binding bid\n   uint public highestBidingBid;\n   \n   // making it payable so if auction got cancelled or anything he can get his amount back\n   address payable public highestBidder;\n\n\n   mapping(address=>uint) public bids;\n\n   uint bidIncrement;\n   \n   constructor(){\n    owner = payable(msg.sender);\n    auctionState= State.Running;\n\n    startBlock = block.number;\n    // this means that the auction will be running for a week\n    endBlock = startBlock+40320;\n    \n    ipfsHash=\"\";\n    // bid increment will be 100 wei\n    bidIncrement = 100;\n\n   }\n\n   // function modifies - use to modify the function behaviour\n   // use modifies to automatically check the condition prior to function\n     modifier notOwner(){\n        require(owner!= msg.sender);\n        _; // if the owner call this function the function will executed otherwise it will give exception\n\n    }\n\n    // another restriction - aution will running in between starts and end\n    modifier afterStart(){\n        require(block.number>= startBlock);\n        _;\n    }\n     modifier beforeEnd(){\n        require(block.number<= endBlock);\n        _;\n    }\n\n\n   function min(uint a, uint b) pure internal returns(uint){\n    if(a<=b){\n        return a;\n    }else{\n        return b;\n    }\n   }\n   \n   function placeBid() public payable notOwner afterStart beforeEnd{\n      require(auctionState==State.Running);\n      require(msg.value>=100);\n\n// this will be the value sent by current plus\n// the value sent with this transanction value\n      uint currentBid= bids[msg.sender] + msg.value;\n      \n      require(currentBid> highestBidingBid);\n      bids[msg.sender]= currentBid;\n       \n      if(currentBid<= bids[highestBidder]){\n        highestBidingBid = min(currentBid+bidIncrement,bids[highestBidder]);\n\n      }\n      else{\n          highestBidingBid = min(currentBid,bids[highestBidder]+bidIncrement);\n\n      }\n   }\n\n\n}",
  "sourcePath": "/home/tuba/Work-Folder/BlockChain-Developement/Auction-Dapp-Project/src/contracts/Auction.sol",
  "compiler": {
    "name": "solc",
    "version": "0.8.16+commit.07a7930e.Emscripten.clang"
  },
  "schemaVersion": "3.4.9",
  "updatedAt": "2022-09-03T20:11:47.229Z",
  "devdoc": {
    "kind": "dev",
    "methods": {},
    "version": 1
  },
  "userdoc": {
    "kind": "user",
    "methods": {},
    "version": 1
  }
}